:100000000C9435060C9452060C9452060C9452062D
:100010000C9452060C9452060C9452060C94520600
:100020000C9452060C9452060C94C4290C94982AF1
:100030000C9417240C9452060C9452060C945206FD
:100040000C9452060C9452060C9452060C945206D0
:100050000C9452060C949E240C9452060C94520656
:100060000C9452060C9452060C9452060C945206B0
:100070000C9452060C9452060C9452060C945206A0
:100080000C9452060C9452060C9452060C94520690
:100090000C9452060C9452060C9452060C94520680
:1000A0000C9452060C9452060C94520629001E0021
:1000B0001F00200021002200000023002400250052
:1000C000260027002D002B0014001A000800150040
:1000D000170000001C0018000C0012001300310073
:1000E000390004221621072409280A2F00000B2FAB
:1000F0000D380E340F3133323400E1001D001B0087
:10010000060019000500D10011001000360037006C
:100110003800E50000000000000000004C002A410B
:10012000D2002C4328005000510052004F00000024
:1001300000000000000000000000000000000000BF
:10014000000000000000000001002B00DA00520057
:10015000D9004A00000053005F00600061005600B3
:10016000000001003900500051004F004D00000018
:1001700054005C005D005E00570000000100290093
:10018000DB000000DC0000000000550059005A00B0
:100190005B00670000000100010001000100000099
:1001A00001000000010062006200630058000000CE
:1001B0000100010001000100010001000000010038
:1001C0000100010001000100010001000100010027
:1001D0000100010001000000010001000100010018
:1001E0000100010001000100010001000100010007
:1001F00000000100010001000100010001000100F8
:1002000001000100010001000100010001000100E6
:1002100001000100010001000100010001000100D6
:1002200001000100010001000100010001000100C6
:1002300001000000000000000000000000000000BD
:1002400000000000000000000000000000001E028E
:100250001F022002210222020000230224022502A2
:100260002D002E000000000026022F002F02360273
:10027000350000003502370230023000270200004E
:1002800000003300330234003402000000002D006F
:100290002D02310031023800000000000000000093
:1002A000000000000000000000000000000000004E
:1002B00000000000007C00000000000000000000C2
:1002C000000000000000000000000000000000002E
:1002D00000000000000000000000000000003A00E4
:1002E0003B003C003D00000000000000000000005A
:1002F00000000000000000003E003F004000410000
:1003000000000000000000000000000000000000ED
:1003100000004200430044004500000000000000CF
:1003200000000000000000000000000000000000CD
:1003300000000000000044454255473A20646973BC
:1003400061626C65642E0A0044454255473A206557
:100350006E61626C65642E0A006C65645F74617323
:100360006B3A20253032580A004F6E6573686F74FF
:100370003A206163746976653A2025640A000A00B0
:100380002530313662003A200025303258000A729A
:100390002F632030313233343536373839414243D8
:1003A0004445460A00556E69636F646520696E7046
:1003B0007574206D6F64652073657420746F3A20C6
:1003C00025750A00556E69636F646520696E7075E6
:1003D00074206D6F646520696E697420746F3A20B3
:1003E00025750A00313A0964656C6179282A313033
:1003F0006D73293A2025750A323A09696E7465725F
:1004000076616C286D73293A2025750A333A096D97
:1004100061785F73706565643A2025750A343A091E
:1004200074696D655F746F5F6D61783A2025750A38
:10043000353A09776865656C5F6D61785F737065E3
:1004400065643A2025750A363A09776865656C5FF8
:1004500074696D655F746F5F6D61783A2025750A08
:1004600000703A097072696E742076616C756573FC
:100470000A643A097365742064656661756C747307
:100480000A75703A092B310A646E3A092D310A6CEB
:10049000743A092B31300A72743A092D31300A4509
:1004A00053432F713A09717569740A0A737065654F
:1004B00064203D2064656C7461202A206D61785F42
:1004C0007370656564202A202872657065617420E8
:1004D0002F2074696D655F746F5F6D6178290A778D
:1004E000686572652064656C74613A206375727327
:1004F0006F723D25642C20776865656C3D25640A24
:1005000053656520687474703A2F2F656E2E776975
:100510006B6970656469612E6F72672F77696B69AB
:100520002F4D6F7573655F6B6579730A004D3E20C3
:10053000004D25753A25733E20003F0A003D2025D9
:10054000750A003F0A0064656661756C74730A0081
:1005500025750A003F0A000A092D2056616C756551
:1005600073202D0A00710A000A092D204D6F757342
:10057000656B6579202D0A003F00433E20004C2525
:10058000640A000A092D20537461747573202D0AC2
:10059000686F73745F6B6579626F6172645F6C65BD
:1005A000647328293A20253032580A6B6579626FC6
:1005B0006172645F70726F746F636F6C3A20253084
:1005C00032580A6B6579626F6172645F69646C6549
:1005D0003A20253032580A74696D65725F72656120
:1005E00064333228293A202530386C580A002573A4
:1005F000000A092D20436F6E736F6C65202D0A452C
:1006000053432F713A09717569740A6D3A096D6F18
:100610007573656B65790A000A092D204D6167695C
:1006200063202D0A443A094465627567204D65735D
:100630007361676520546F67676C650A583A094DA6
:100640006174726978204465627567204D6F6465D6
:1006500020546F67676C65202D2053686F77206B7F
:1006600065797072657373657320696E206D61744E
:1006700072697820677269640A4B3A094B6579623E
:100680006F61726420446562756720546F67676CA0
:1006900065202D2053686F77206B657970726573C4
:1006A00073207265706F72740A4D3A094465627501
:1006B00067204D6F75736520546F67676C650A56C8
:1006C0003A0956657273696F6E0A533A0953746139
:1006D0007475730A433A09416374697661746520DD
:1006E000436F6E736F6C65204D6F64650A46312DE4
:1006F0004631303A0953776974636820746F204C2F
:100700006179657220302D392028463130203D2016
:100710004C30290A302D393A0953776974636820BF
:10072000746F204C6179657220302D390A4752412F
:1007300056453A0953776974636820746F204C6199
:1007400079657220302028616C7465726E61746501
:10075000290A423A094A756D7020746F20426F6F02
:10076000746C6F616465720A4553433A094A756D4A
:100770007020746F20426F6F746C6F6164657220BB
:1007800028616C7465726E617465290A453A095076
:1007900072696E7420454550524F4D2053657474F4
:1007A000696E67730A4241434B53504143453A09CE
:1007B000436C65617220454550524F4D0A006B6590
:1007C000796D61705F636F6E6669672E7261773AEB
:1007D00020253032580A2E737761705F636F6E7414
:1007E000726F6C5F636170736C6F636B3A20257519
:1007F0000A2E636170736C6F636B5F746F5F636FFE
:100800006E74726F6C3A2025750A2E737761705F73
:100810006C63746C5F6C6775693A2025750A2E737A
:100820007761705F7263746C5F726775693A2025D7
:10083000750A2E737761705F6C616C745F6C67759D
:10084000693A2025750A2E737761705F72616C7446
:100850005F726775693A2025750A2E6E6F5F67753E
:10086000693A2025750A2E737761705F6772617629
:10087000655F6573633A2025750A2E737761705F33
:100880006261636B736C6173685F6261636B7370E9
:100890006163653A2025750A2E6E6B726F3A2025CA
:1008A000750A2E737761705F6573636170655F634E
:1008B0006170736C6F636B3A2025750A0064656222
:1008C00075675F636F6E6669672E7261773A202580
:1008D0003032580A2E656E61626C653A2025750AC1
:1008E0002E6D61747269783A2025750A2E6B6579D0
:1008F000626F6172643A2025750A2E6D6F7573659B
:100900003A2025750A006565636F6E6669673A0A65
:1009100064656661756C745F6C617965723A2025F7
:10092000750A003F000A6D6F7573653A206F666641
:100930000A000A6D6F7573653A206F6E0A000A6BC4
:100940006579626F6172643A206F66660A000A6BAD
:100950006579626F6172643A206F6E0A000A6D6198
:10096000747269783A206F66660A000A6D61747263
:1009700069783A206F6E0A000A64656275673A20EA
:100980006F66660A000A64656275673A206F6E0AD0
:10099000000A0A4A756D70696E6720746F20626F75
:1009A0006F746C6F616465722E2E2E2000433E20A2
:1009B00000436C656172696E6720454550524F4D2A
:1009C0000A00290A002575002F002575005D280002
:1009D00025640020002564002000256400200025F7
:1009E00064007C0025303258006D6F7573656B654F
:1009F00079205B62746E7C782079207620685D288F
:100A00007265702F61636C293A205B000000000062
:100A1000000000002A2B2800000000000000000059
:100A20000000000000000029000000002C1E3420FF
:100A3000212224342627252E362D3738271E1F2025
:100A40002122232425263333362E37381F0405066A
:100A50000708090A0B0C0D0E0F10111213141516AE
:100A60001718191A1B1C1D2F3130232D35040506AC
:100A70000708090A0B0C0D0E0F101112131415168E
:100A80001718191A1B1C1D2F3130354C000000009F
:100A90000000000000000000000000000000000056
:100AA0000000000000000000000000000000000046
:100AB0007E0F00D4FFFFFFC7000000780A0025303A
:100AC000325820006B6579626F6172645F72657085
:100AD0006F72743A2025303258207C200073757371
:100AE00070656E64696E67206B6579626F617264B0
:100AF0000D0A005B575D005B535D005B525D005B60
:100B0000445D005B435D00120341007400720065A8
:100B100000750073003600320000000E03500072B2
:100B2000006F0066006500740000000403090409FA
:100B3000025400030100A0FA0904000001030101AE
:100B4000000921110100012244000705810308006A
:100B50000109040100010300000009211101000145
:100B6000227B000705820320000109040200010323
:100B7000000000092111010001221500070583036F
:100B800020000112010002000000087250626001A2
:100B900000010200010631FF0974A1010975150069
:100BA00026FF00952075088102C005010902A101F8
:100BB00085020901A100050919012908150025016F
:100BC0009508750181020501093009311581257FDC
:100BD00095027508810609381581257F95017508EC
:100BE0008106050C0A38021581257F95017508815B
:100BF00006C0C005010980A101850319012AB700BB
:100C0000150126B700950175108100C0050C09017A
:100C1000A101850419012AA002150126A00295014F
:100C200075108100C005010906A101050719E02919
:100C3000E715002501950875018102950175088168
:100C4000010507190029FF150026FF009506750804
:100C50008100050819012905150025019505750173
:100C60009102950175039101C00011241FBECFEFC1
:100C7000DAE0DEBFCDBF12E0A0E0B1E0E0ECFAE5E3
:100C800002C005900D92A43CB107D9F723E0A4EC73
:100C9000B2E001C01D92A83BB207E1F70E94D9174C
:100CA0000C94172D0C940000FF93EF93E091C40275
:100CB000F091C502309709F00995EF91FF910895E1
:100CC000FC018591803011F0EFDFFBCF0895FF2705
:100CD000E0E230E247FF0CC0419597FF09C0EDE22A
:100CE0006095709580959095611D711D811D911D78
:100CF00027FF02C0219530E350E2AA27660F771F35
:100D0000881F991FAA1FA41710F0A41B63955A955A
:100D1000A9F7AA3008F0A95FA05DAF93F39561151C
:100D200071058105910541F7ED3211F4EF93F395CB
:100D3000F21718F43F93F395FBCF8F91B5DFFA9537
:100D4000E1F70895E991F9918591803021F085329C
:100D500019F0AADFF9CF089520E0E89455915532B3
:100D6000C1F3503311F4689455915A3348F45053F9
:100D700090F3220F022E220F220F200D250FF4CF09
:100D80000EF4219589919991533619F3533729F12E
:100D9000533559F1BC0188279927E8945C3621F432
:100DA0008991999168945591543639F446EF7EF0C3
:100DB00077FF0DC08FEF9FEF0AC055374AE039F03B
:100DC000583540E121F0523642E009F00895FF9392
:100DD000EF937DDFEF91FF91B7CFFF93EF93FC018E
:100DE00081918030B9F360DFFBCFFF93EF9368DF31
:100DF000F1CFDF93CF93CDB7DEB72596A3DFCF91A9
:100E0000DF9108958530B8F46530A8F44D3098F43A
:100E100050E09DE0699F400D511D1124FA0191E4BD
:100E2000899FE00DF11D1124EE0FFF1FE455FF4FC8
:100E300085919491089581E090E008950E940207C1
:100E400008959C013A9521153F4150F5FC01EE278C
:100E5000F170BC0166277270AC01442754709C018C
:100E60002227387094FF0EC080E1EF2B09F480E058
:100E7000672B09F08062452B09F08064232B89F0F1
:100E80008068089581E0EF2B09F480E0672B09F07A
:100E90008260452B09F08460232B19F08860089547
:100EA00080E00895CF93DF93EB010E942107FE01BC
:100EB0000995DF91CF910895CF93DF93EC01805E88
:100EC0009109089720F06AEA7CE0209711F46DE61A
:100ED0007AE0CE010E9452078C2F0E945F09DF91B9
:100EE000CF910895CF93DF93EC010E94F209CE01D8
:100EF000805E9109089720F061EB7CE0209711F467
:100F000064E77AE0CE010E945207DF91CF91089505
:100F10000F931F93CF93DF938C01EB010E945C072B
:100F2000209741F4C8010E947207DF91CF911F9171
:100F30000F9108958FE99FE00197F1F700C000003D
:100F40002197EECF70E060E08933910511F460E500
:100F500070E00E948807089581E008950E94AC0720
:100F6000089581E008950E94AC0708950E94B30798
:100F7000089508950E94B9070895A6E0B0E0E3EC53
:100F8000F7E00C94732C49835A839E833091CB02F3
:100F900089819A8131111AC03E81332399F022232D
:100FA00089F00E941D0E182F682F89819A810E9456
:100FB000F90D69817A81812F0E9413152696E3E04D
:100FC0000C948F2C0E940B0E182FF3CF0E941D0E35
:100FD00069817A81F1CFFC01262F408151816281A4
:100FE0007381848195810E94BD070895CF93DF931B
:100FF000EC0161E00E94EB07BE010E94AE07DF91A9
:10100000CF910895CF93DF93EC0160E00E94EB074E
:10101000BE010E94BA07DF91CF91089581E0089543
:101020000E940E080895CF93C82F0E94CE0C8C2FDB
:101030000E9410082FEF84E39CE0215080409040F4
:10104000E1F700C00000CF91089581E00E941308ED
:101050000E94C224089580E00E9413080E94D324B5
:1010600008950F931F93CF93DF938C0161E00E944B
:10107000EB07EC01B8010E94B607811106C080E0C1
:10108000DF91CF911F910F910895B801CE010E9479
:1010900003188823A1F3B801CE010E943A228823C5
:1010A00071F3B801CE010E94291D882341F3B801D4
:1010B000CE010E94FF1C882311F3F801858188234B
:1010C00069F0C330FCE7DF07A1F160F4C130ECE761
:1010D000DE0789F1C0F4C115DC4791F0C8010E9418
:1010E000B107CECFCB35ECE7DE0759F1CC35FCE7C5
:1010F000DF0721F1CA35DC4789F70E944A12EECF9B
:101100000E942508BCCF90915E03892F8E7F90FFAF
:10111000816080935E0380FF09C088E493E09F9321
:101120008F930E94F9060F900F90A9CF86E393E06A
:10113000F6CF0E9452120E942B08A1CF0E944012AB
:10114000CDCF0E944E12CACF0E94F3230E94E9081D
:1011500008950E94ED080E94F8230895829590E07A
:101160009C01220F331F220F331F2C7C95958795EE
:10117000959587958373282B30E0C901880F991FB7
:101180008A7A359527952575822B0895CF93DF931D
:10119000D92F0E94AE08C82F8D2F0E94AE089C2F19
:1011A000DF91CF91089581E008950895CF93DF9363
:1011B000D82F0E94D308C82F882319F08D2F0E94A2
:1011C000D5088C2FDF91CF91089508950E94D608FD
:1011D000089580E00E94E60808950E9483220E94FC
:1011E000E6080895CF930E948322C82F8091C602FB
:1011F0008C1701F1C093C6020E9483246093C7023A
:101200007093C8028093C9029093CA0280915E03D2
:101210008570853061F41F92CF9389E593E09F93A9
:101220008F930E94F9060F900F900F900F908C2FC4
:101230000E94E608CF910895ADE0B0E0E2E2F9E067
:101240000C94742C488759876A877B878C879D8785
:1012500091110E946D111F8286E0FE013896DE0119
:10126000119601900D928A95E1F78D8181110DC043
:1012700029813A814B815C816D817E818F810E94C1
:10128000B4102D96E2E00C94902CCE0101960E94B1
:10129000F6078111EDCFF5CFFC012481213021F437
:1012A000808191810E944F0E0895662329F00E944B
:1012B0008A1E0E945D1F08950E94E41EFACFCF93FC
:1012C000C82F8823C9F08238C9F40E94902281FD7A
:1012D00013C089E30E9489230E94DC112FEF87EE5F
:1012E00093E0215080409040E1F700C0000089E386
:1012F0000E9491230E94DC11CF9108958338A1F4BC
:101300000E94902280FDF8CF83E50E9489230E94ED
:10131000DC112FEF81EE94E0215080409040E1F706
:1013200000C0000083E5E4CF8438A1F40E9490223D
:1013300082FDE2CF87E40E9489230E94DC112FEF17
:1013400081EE94E0215080409040E1F700C0000021
:1013500087E4CECF8CEF8C0F813A98F48C2F0E94CB
:101360009F1C8111C9CF8C2F0E944E23882329F006
:101370008C2F0E9491230E94DC118C2F0E948923C4
:10138000B9CF80E28C0F883048F4C77081E001C08B
:10139000880FCA95EAF70E944D11ACCFEBE5EC0F30
:1013A000E33040F4F0E0E55BFE4F808190E00E9486
:1013B000EF22A2CFE8E5EC0FEB3150F4F0E0EE0FB6
:1013C000FF1FEB5EFE4F808191810E94142394CF1A
:1013D00083E38C0F833108F08FCF61E08C2F0E9464
:1013E00055098ACF882309F456C0823879F40E94BF
:1013F000902281FF50C089E30E9489230E94DC1162
:1014000089E30E9491230E94DC110895833859F4E6
:101410000E94902280FF3FC083E50E9489230E94A2
:10142000DC1183E5EECF843859F40E94902282FFCC
:1014300032C087E40E9489230E94DC1187E4E1CF57
:101440009CEF980F913AE8F290E2980F983050F4A0
:10145000877091E001C0990F8A95EAF7892F0E9461
:101460005311D1CF9BE5980F933028F490E080E0A2
:101470000E94EF22089598E5980F9B3128F490E0A0
:1014800080E00E941423089593E3980F933118F499
:1014900060E00E94550908951F93CF93DF93182FA2
:1014A000EB010E945F09209739F4812F0E94F20915
:1014B000DF91CF911F9108958FE99FE00197F1F798
:1014C00000C000002197EFCF70E060E0893311F495
:1014D00060E570E00E944C0A0895882321F00E9484
:1014E0004D110E94DC110895882321F00E945311B0
:1014F0000E94DC110895B0E0A0E0E1E8FAE00C946D
:101500006D2C6C01D62FC72FFC0115810681029529
:101510000F700E944311E82E8823F9F0E12E112369
:10152000E1F08C2F807F803461F080E28D0F883075
:1015300008F18C2F807E803221F4D230D8F0002345
:10154000C9F080918F0382FF15C082E00E940112D2
:101550000E94431191E0E82EE926BC2EB2949FE050
:10156000B922FBE0FB15B8F1EB2DF0E0E75EF24DA0
:101570000C945E2CE12CF1CF0C2F0F70C07F11F07A
:101580000295007F112399F0002359F080E28D0F1E
:10159000883010F0D11107C0802F0E944D110E9499
:1015A000DC118D2F5AC0802F0E946011F8CF8D2F33
:1015B0000E94F209002379F080E28D0F883010F04C
:1015C000D11104C0802F0E94531103C0802F0E94AC
:1015D00066110E94DC11EB2DE850FF0B349720F4CC
:1015E0000E9483220E94E608EE2089F00E943F11AB
:1015F00080FD0DC0F60115820E9439110E94570D21
:10160000C6010E94870C0E9439110E94670DCDB758
:10161000DEB7E9E00C94892C2C2F2F70F22EC07FBE
:10162000C03219F0F29480EFF822DD2341F0D1307E
:10163000D1F1112309F444C00023F1F0B2CF80911D
:101640008F0382FD15C0112359F0FF2029F08F2D43
:101650000E944D110E94DC1180E00E945F09BBCF07
:1016600080E00E94F209FF2009F4B5CF8F2DABCFA7
:10167000112369F0011104C08F2D0E946D0AABCFB8
:10168000013009F0A8CF8F2D0E948411A4CF011141
:10169000A2CF8F2D0E94740A8F2D0E9490118F2D42
:1016A0000E94741198CF112321F0063008F093CFD7
:1016B000E3CF053008F08FCF8F2D0E94740A8BCFB7
:1016C0000023D1F3D93349F43FEF87EE93E0315053
:1016D00080409040E1F700C000008D2F0E94F20989
:1016E0007ACF8C2F86958695837069F0813009F0CA
:1016F00072CF8D2F9C2F9370111102C080E090E06B
:101700000E94142368CF8D2F9C2F9370111102C05B
:1017100080E090E00E94EF225ECF612F8D2F0E942B
:10172000550959CF8C2F8370A1F5111154CF4D2F2E
:10173000429546954770440F440F2D2F2F7030E08F
:10174000042E02C0220F331F0A94E2F790E080E0DB
:10175000D4FF09C08FE090E002C0880F991F4A951E
:10176000E2F780959095C695C695C370822B932B12
:10177000C23049F058F4C13019F00E94270D2BCF28
:101780000E941E0D28CF0E94300D25CF0E941B0DF8
:1017900022CF8695112311F08C2F8170882309F4B4
:1017A0001ACF4D2F429546954770440F440F2D2F69
:1017B0002F7030E0042E02C0220F331F0A94E2F78C
:1017C00090E080E0D4FF09C08FE090E002C0880F75
:1017D000991F4A95E2F780959095C695C695C37076
:1017E000822B932BC23049F058F4C13019F00E947B
:1017F000920DF1CE0E94890DEECE0E949B0DEBCE94
:101800000E943F0DE8CECF70112329F08C2F0E944B
:10181000570D8D2F32CF8D2F0E94740A8C2F0E946E
:10182000670DD9CED23F41F160F4D03FB9F0D13F3E
:1018300081F0112309F443C00111B3CE8C2F8F71B5
:101840001FC0D33F01F1D43FA1F780918F0382FDE8
:1018500024C08C2F8F71112311F312C0112341F07A
:10186000053008F0B8CE8C2F8F710E94790DB3CE61
:10187000063008F0B0CEF7CF8C2F8F711111CFCF7B
:101880000E94570DA8CE112329F08C2F8F710E9432
:101890004B0DA1CE0E94460D9ECE112331F063E088
:1018A0008C2F8F710E94E31196CE81E00E9401126D
:1018B000023008F490CE82E00E9401128CCE002308
:1018C00059F0D93309F009CFEFEFF7EE23E0E150FB
:1018D000F0402040E1F7FFCE8C2F8F71A0CF0F9307
:1018E0001F93CF93DF93EC01688179818D810E94F2
:1018F0005A0E8C010E94A40D0E941A0DB801CE014F
:101900000E947B0ADF91CF911F910F910895CF9391
:10191000DF93EC018C81882399F0CE010E9431087D
:10192000811111C00E944311882351F08D818823B9
:1019300039F080918F0382FF03C082E00E94011280
:10194000DF91CF910895CE010E946F0CCE010E94CD
:101950000208F6CF882321F00E9460110E94DC115A
:101960000895882321F00E9466110E94DC110895D9
:1019700090E080E00E94EF2290E080E00E9414233B
:101980000E946D110E94DC110E9413200E945D1FB5
:1019900008950E9499230E94B80C08950E945D1139
:1019A0000E94C90C089592959F70963091F058F45A
:1019B000925F9F70923058F4803F19F030F4883E67
:1019C00030F481E008959A5FF4CF843FD1F380E052
:1019D0000895883EB0F3813FD1F7F3CFFC01248115
:1019E000222339F0808191810E944F0E0E94D30CF6
:1019F000089580E00895A6E0B0E0E1E0FDE00C94F9
:101A0000742C2696E2E00C94902CA7E0B0E0EBE07A
:101A1000FDE00C94742C2796E2E00C94902C089531
:101A20000E940F0D08950E94100D9093F302809371
:101A3000F202089508950E94130D08952091F20274
:101A40003091F302822B932B0E94130D0895209165
:101A5000F2023091F302822393230E94130D089522
:101A60002091F2023091F302822793270E94130DF6
:101A700008950E940F0D08950E94390D08950E9447
:101A80003C0D9093F1028093F002089590E080E085
:101A90000E943F0D089521E030E0A90102C0440FEB
:101AA000551F8A95E2F7CA010E943F0D089521E073
:101AB00030E002C0220F331F8A95E2F78091F002D6
:101AC0009091F102822B932B0E943F0D089521E00B
:101AD00030E002C0220F331F8A95E2F7209530953F
:101AE0008091F0029091F102822393230E943F0D96
:101AF000089521E030E002C0220F331F8A95E2F7FB
:101B00008091F0029091F102822793270E943F0D6D
:101B100008952091F0023091F102822B932B0E94C4
:101B20003F0D08952091F0023091F102822393231A
:101B30000E943F0D08952091F0023091F10282271A
:101B400093270E943F0D08950895262F277091E056
:101B500001C0990F2A95EAF723E0769567952A95B3
:101B6000E1F7660F771F660F771FFA01E60FF71F81
:101B700050E040E0682F70E08191DF0111979B01F8
:101B8000042E02C0369527950A94E2F7217021951C
:101B90002827292328272C934F5F5F4F4430510576
:101BA00059F70895A82FA77023E0969587952A9551
:101BB000E1F7880F991F880F991FFB01E80FF91FA4
:101BC00050E040E080E0219130E00A2E02C03695DE
:101BD00027950A94E2F721703327042E01C0220FC3
:101BE0000A94EAF7822B4F5F5F4F4430510559F753
:101BF0000895262F953070F48D3060F4682F70E0D2
:101C00008DE0989F600D711D11244CEC52E0822FE5
:101C10000E94A50D0895292F953068F48D3058F451
:101C200090E06CEC72E03DE0239F800D911D11244B
:101C30000E94D20D089580E00895B0E0A0E0E3E2B4
:101C4000FEE00C946D2C7C010091F0021091F102E9
:101C50008091F2029091F302082B192BCFE0D0E093
:101C6000CC24C394D12CBC2EC6010C2E02C0880FEC
:101C7000991F0A94E2F780239123892B49F4219735
:101C800090F7B12C8B2DCDB7DEB7E9E00C94892C01
:101C9000B7018C2F0E941F15019789F3F3CFCF93C3
:101CA000DF93EC010E941D0EBE010E941F15DF9103
:101CB000CF9108951F93CF93DF93EB019091CB02C7
:101CC000992339F0CB010E944F0EDF91CF911F91E4
:101CD0000895882369F0CB010E941D0E182F682FEC
:101CE000CE010E94F90DBE01812F0E941F15EDCF7C
:101CF000CB010E940B0E182FF6CF1F93CF93DF93CB
:101D0000C091F40217E08091F5028C1304C0DF91BA
:101D1000CF911F910895D0E01C9FF0011D9FF00D01
:101D20001124EA50FD4F2081318142815381648129
:101D3000758186810E94050D2196C770E4CF2091A0
:101D40002E0330912F034091300350913103609165
:101D5000320370913303809134030E94050D08957E
:101D6000CF93DF9380913403807F09F04DC0809141
:101D70003303882309F448C0E091F4025091F5023E
:101D8000C0912F03D0912E036091300370913103E5
:101D900047E05E17C9F18E2F90E0E49FF001112417
:101DA000EA50FD4F2481222391F1489FF001499F81
:101DB000F00D1124DF01AA50BD4F11962C911197FF
:101DC0002C1325C02C912D1322C015962C911597FC
:101DD00021111DC012962D913C91261B370B283CDA
:101DE0003105A8F4809134038F70806180933403AF
:101DF000E450FD4F80818F70806180838EE293E09C
:101E00000E94870C0E947D0EDF91CF910895FC0106
:101E10003196E770BECF482F2091F4029091F502E1
:101E200057E0291302C080E0089530E0529FF0018E
:101E3000539FF00D1124EA50FD4F8181681306C0B5
:101E40008081481303C085818111EECF2F5F3F4F02
:101E50002770E7CFA4E1B0E0E0E3FFE00C946A2C48
:101E60008C0186E0F801DE011F9601900D928A95A3
:101E7000E1F7F8018481E5809EE2A92E93E0B92E76
:101E80009091320391111FC08823D1F0EE20A9F068
:101E9000C8010E94EE0CF82E882379F087E0F80143
:101EA000D50101900D928A95E1F7C5010E944C0978
:101EB0000E94B00E0E949F0E5FC0C8010E94870C56
:101EC000FF24F39459C0C080D18082809380F09029
:101ED00033032091300330913103A401421B530B93
:101EE000FF2009F4F9C0483C510508F0A7C0882339
:101EF00009F442C090912F0380913403282F207F52
:101F000009F05CC09D1116C090912E03C91212C039
:101F1000E1104EC08F708061809334030E949F0E49
:101F20008EE293E00E94870C80913403F80186834F
:101F3000F12C22C0E1103CC06D2D8C2D0E940B0FA6
:101F40006D2D8C2D0E940B0FE82E8111F1CFCF86C5
:101F5000D88A8F8598890E944F0E292F22952F703D
:101F6000243078F49F702230A8F09923B9F0F8015A
:101F70009681907F99F4FE2C8F2D6496ECE00C9462
:101F8000862C2A5F2F70223068F0C8010E94870CCF
:101F9000EF2CF1CF992311F0882369F3805E88300C
:101FA00050F3F3CF803F38F3815F833070F7E3CF96
:101FB00080913403816080933403BACF9D1113C0A4
:101FC00090912E03C9120FC0E1100DC08683C80185
:101FD0000E94870C87E0F801AEE2B3E001900D9219
:101FE0008A95E1F767CFC8010E94EE0C882309F4B7
:101FF00064CFEE2009F461CF80913403803288F001
:1020000020912E0330912F03398728879B868A865B
:10201000909132039C871D868E87CE0108960E9480
:10202000870C87E0F801AEE2B3E001900D928A954B
:10203000E1F70E94B00E0E949F0E42CF90913403B0
:10204000292F207FA1F4682D9A8A898AA6017A898E
:102050009E2D0E94FB0C8EE293E00E94870C87E08D
:10206000F50111928A95E9F70E949F0E61CF8823AE
:1020700009F482CF80912F038D1110C080912E031F
:10208000C8120CC0E1100AC09683C8010E94870CD8
:1020900087E0F50111928A95E9F76ECFC8010E9499
:1020A000EE0C882309F409CFEE2009F406CF8091C5
:1020B0003403803208F4B5CF20912E0330912F03E2
:1020C0003A8329839C828B82909132039D831E8266
:1020D0008F83CE010196A3CF483C5105B8F58823E4
:1020E00009F4EECEFE2CEE2009F4E7CE80912F030A
:1020F0008D111EC080912E03C8121AC08091340326
:1021000080FD0DC0982F907F51F08683903F09F499
:102110005ECF982F907F905F8F70892B57CF87E08D
:10212000F801AEE2B3E001900D928A95E1F724CF79
:10213000C8010E94EE0C811174CF8091340381603C
:1021400080933403C8010E94870C16CF682D9A8AA9
:10215000898AA6017A899E2D0E94FB0C87E0F501F1
:1021600011928A95E9F7A6CEAEE0B0E0EAEBF0E195
:102170000C94732C288739874A875B876C877D8707
:102180008E87CE0108960E942A0F8823B1F06C85B5
:10219000662341F0288539854A855B857D858E8556
:1021A0000E94050D17E08091F4029091F5028913C9
:1021B0003DC02E96E3E00C948F2C87E0FE0138960C
:1021C000DE01119601900D928A95E1F78C858823A6
:1021D00049F32091F50230E0C901019687709927F3
:1021E0004091F4024817190699F097E0929FD001A8
:1021F000939FB00D1124AA50BD4FFE01319601905E
:102200000D929A95E1F78093F5020E947D0ECACF58
:102210000E94CE0C1092F5021092F40287E0EEE2DA
:10222000F3E0DF011D928A95E9F7BCCF819FC001E1
:1022300011248A509D4F0E942A0F882309F4B9CF98
:10224000E091F4021E9FF0011124EA50FD4F20811D
:102250003181428153816481758186810E94050D9F
:102260008091F40290E00196877099278093F402A0
:102270009ACF80913D0386958695869508958091A5
:102280003D038770089590913D03977081E009F4B4
:1022900080E0089580914903089590914903892B26
:1022A00080934903089580959091490398239093D2
:1022B00049030895809349030895109249030895AE
:1022C00090914803892B80934803089580959091BD
:1022D0004803982390934803089510924803089563
:1022E00008950E947011089590913E03292F28238C
:1022F00031F08095892380933E030E9471110895E7
:1023000008950E948011089590913F03292F28235A
:10231000281729F0982B90933F030E94811108956C
:1023200090913F03292F282331F0809589238093B2
:102330003F030E948111089580913F03882329F073
:1023400010923F0380E00E94811108950F931F9324
:10235000CF93DF930091000110910101C0914903D7
:1023600080914803C82B80913F03882331F0C82B0C
:102370000E94392381110E949C11F801C083C091F1
:102380000001D091010148E050E065E373E0CE0127
:102390000E94AF2C892B59F088E0FE01A5E3B3E041
:1023A00001900D928A95E1F7CE010E949322DF9170
:1023B000CF911F910F9108950E94A611089508953D
:1023C0000E94DF11089590918F0392FF11C098E051
:1023D000899F90011124622B60933D030E94570D49
:1023E00080913D038695869586950E94E01108951B
:1023F0000E94570D089510923D0380E00E94E01165
:10240000089590913D038095892380933D03282F63
:10241000277069F4891759F090918F0392FF07C0D4
:102420008695869586950E94670D0E94FB110895FA
:10243000CF93C82F80918F0382FB992790F99C1727
:10244000E9F0C0FB82F980938F0380918E03909115
:102450008F030E94731282E00E94011280915E033A
:1024600080FF0CC01F92CF9389E693E09F938F93D8
:102470000E94F9060F900F900F900F90CF91089542
:1024800080918F0382FB882780F991E089270E9441
:102490001812089581E00E941812089580E00E94A9
:1024A000181208956FEF7FEF90E080E00E94012DF9
:1024B000089590E080E00E94CD2C21E0853E9E4F63
:1024C00009F020E0822F089582E090E00E94C52C60
:1024D000089583E090E00E94C52C089584E090E088
:1024E0000E94CD2C0895BC0184E090E00E94012D53
:1024F0000895AB01BC018FE090E00E94F52C089597
:10250000AB01BC0183E190E00E94F52C089560E0EE
:1025100070E0CB010E948012089560E070E0CB0172
:102520000E9479120E9487120895A8E0B0E0EBE9BA
:10253000F2E10C94742C65EE7EEF90E080E00E9456
:10254000012D60E082E090E00E94E32C81E090E0C9
:102550009093F3028093F20261E083E090E00E94A6
:10256000E32C60E074E184E090E00E94012D60E0E3
:1025700086E090E00E94E32C60E087E090E00E941B
:10258000E32C40E050E0BA0188E090E00E94F52C96
:1025900060E083E290E00E94E32C60E08CE090E059
:1025A0000E94E32C60E08DE090E00E94E32C198211
:1025B0001A821B821C821D821E821F82188648E09E
:1025C00050E067E170E0CE0101960E94D32C40E01C
:1025D00050E0BA018FE190E00E94F52C0E948D122C
:1025E0002896E2E00C94902C0E9495120895682F92
:1025F0008EE090E00E94E32C0895A6E0B0E0E3E0D6
:10260000F3E10C94722C0E9477248C0180914A0390
:1026100090914B038017910781F019821A820E94D2
:102620007724682F49815A81792F80E090E00E94B9
:102630001C0910934B0300934A032696E4E00C9484
:102640008E2C0E94832460935A0370935B038093C3
:102650005C0390935D0360935603709357038093DC
:102660005803909359030895089508950E943413D0
:10267000089508950E94391308958EE896E20E9405
:10268000F0170E9435130E943613089581E00895D3
:102690000E94461308950E944613089508950895D0
:1026A0000E944E130E944F1308950E9459128111E7
:1026B00002C00E94F4120E94641280935E030E9482
:1026C0006E1290938F0380938E030E94691290E0A4
:1026D0000E941B0D8091F0029091F1020E943C0D2E
:1026E00008950E946E240E9430170E9455130E9484
:1026F000E5080E9453180E943A130895A6E0B0E03E
:10270000E4E8F3E10C94682C0E94481381110AC09C
:102710000E94FD120E9435200E94F2082696EEE0EB
:102720000C94842C0E9446172CE4822E23E0922ED7
:10273000640110E0F601E190F1906F01812F0E9499
:102740001D161F5F153009F44BC0E816F90691F30A
:1027500080915E0381FD0E9426160E944B13782E05
:1027600010E066246394812F0E941D167C01F40101
:10277000A190B1904F018A159B0561F100E0CC2436
:10278000C394D12CAE24BF24C5018C219D21892B5B
:10279000C1F07720B1F009831A830E9477249C83CB
:1027A0008B836D8221E0C7018C219D21892B09F447
:1027B00020E049815A816B817C818D81922F0E941A
:1027C0001C090F5FCC0CDD1C0D30F1F6F4013297C3
:1027D000F182E0821F5F153031F60E9421139ACFFB
:1027E000E816F90609F0B4CF93CF1F93CF93DF9388
:1027F0000E942415EC01C11580E5D807F0F5C1153C
:1028000080E4D80708F09CC0C03ED10520F5CD3C3F
:10281000D10508F082C0C83AD10578F4C53AD1058F
:1028200008F073C0C130D10519F1209709F1C43007
:10283000D105F0F4D0E0C0E01BC0C33CD105D0F717
:10284000C85AD0E0CC0FDD1FC25BDE4F0990D881A3
:10285000C02DD4640DC0C11580E2D80708F0D1C0E6
:10286000C11581E0D80708F05AC0C83ED10510F75D
:10287000CE01DF91CF911F910895C03682E5D80730
:1028800018F5C03482E5D80708F06BC0C03282E585
:10289000D80708F05FC0C11582E5D80708F497C0D3
:1028A0002C2F2695269580E2289F900111248C2FAD
:1028B0008370C1E0D0E002C0CC0FDD1F8A95E2F743
:1028C000C22BD32BDD68D4CFC03A82E5D80760F4A1
:1028D000C03882E5D80708F459C0CF71D0E0DC2FAA
:1028E000CC27C46FD06AC4CFC03C82E5D80708F4B7
:1028F00062C0C03E82E5D80708F09CCFDC2FCC2711
:10290000CC27DF71C06FD06AB3CFC55AD0E0CC57A7
:10291000DE4FC881D0E0D064ABCFD065A9CF8D2F7A
:102920000E94C615182FCE0199270E942415C12F89
:10293000D0E0DC2FCC27CC27DF71C82BD92B98CF48
:10294000CE0199270E942415CC27DF70C82BD92BE4
:10295000D06A8ECFCF71D0E0DC2FCC27C16FD06A88
:1029600087CF2C2F26952695277080E2289F9001EF
:1029700011248C2F8370C1E0D0E002C0CC0FDD1F8A
:102980008A95E2F7C22BD32BDC6872CF2C2F2695C9
:102990002695277080E2289F900111248C2F837048
:1029A000C1E0D0E002C0CC0FDD1F8A95E2F7C22B58
:1029B000D32BDA685DCF8C2F8F710E94C615C82F7C
:1029C000D0E0DC2FCC27CC27DF71D06251CF8C2F09
:1029D0008F710E94C61555E0D695C7955A95E1F7B7
:1029E000CF70D0E0DC2FCC27282F30E084FF05C04B
:1029F00044E0220F331F4A95E1F7C22BD32BD06955
:102A000037CF8D2F8F710E94C615182FCE019927B1
:102A10000E942415C12FD0E0DC2FCC27CC27DF71FA
:102A2000C82BD92BD2CF462F753030F46D3020F41F
:102A3000672F0E941E07089590E080E008950E948D
:102A400013150E94F513089582389105B9F1B0F479
:102A50008133910509F47DC048F48932910509F468
:102A60006DC08A32910509F47BC0089585339105C4
:102A700009F45FC08933910509F10895833E9105FA
:102A8000D9F138F4803E910529F1823E910579F122
:102A90000895863E9105D9F1873E910509F43EC01F
:102AA000843E910541F520918F0321FF24C0809140
:102AB0008E0384FD19C087EE90E0089520918E0367
:102AC000237009F05AC020918F0323FF14C089E2BC
:102AD00090E0089520918E0320FD38C030918F033F
:102AE00030FF09C024FF43C090E080E008952091AA
:102AF0008E0322FDF7CF089520918E0322FD3AC068
:102B000030918F0330FD39C024FFF5CFEDCF2091F8
:102B10008E0323FFF0CF24FDE7CFCDCF20918E038E
:102B200023FD2EC030918F0331FFEECF84EE90E075
:102B3000089520918E0325FFDECFC9CF20918E030B
:102B400025FD21C020918F0323FFD5CF89E390E09D
:102B5000D2CF20918E0326FFCECF8AE290E0089557
:102B600020918E0326FFC7CF81E390E0089583EE86
:102B700090E0089582EE90E0089580EE90E0089550
:102B800086EE90E0089585E390E0089590918E039D
:102B900092FF10C041E0282F2471243009F040E05A
:102BA00031E0282F2871283009F030E0431711F068
:102BB0002CE0822793FF10C041E0282F247124319C
:102BC00009F040E031E0282F2871283109F030E089
:102BD000431711F02CE0822730918F0330FF10C093
:102BE00051E0282F2171213009F050E041E0282FD9
:102BF0002871283009F040E0541711F029E08227AD
:102C000031FF10C041E0282F2171213109F040E04F
:102C100031E0282F2871283109F030E0431711F0F6
:102C200029E0822794FD877E089508950E94151655
:102C3000089508950E9419160895E82FF0E0EE0F08
:102C4000FF1FE656FC4F808191810895B0E0A0E01F
:102C5000ECE2F6E10C946A2C8EE893E09F938F935C
:102C60000E94F9068AE9E82E83E0F82E0F900F9073
:102C7000912C812C99E8A92E93E0B92E26E8C22E3A
:102C800023E0D22E00E813E0CEE7D3E09F928F92AC
:102C9000BF92AF920E94F906DF92CF920E94F9068E
:102CA000F701819191917F010E94C6089F938F93B4
:102CB0001F930F930E94F906DF93CF930E94F906AA
:102CC0009FEF891A990AEDB7FEB73C960FB6F894B4
:102CD000FEBF0FBEEDBFF5E08F169104B9F6CDB77C
:102CE000DEB7ECE00C94862C80EA8A95F1F7089523
:102CF00000C008950E9474160895F894E82FE29594
:102D0000EF70F0E031A1282F2F7081E090E001C03A
:102D1000880F2A95EAF7982F9095932391A392A173
:102D2000892B82A3789408950F931F93CF93DF93F9
:102D3000C7E8D1E089918F3F11F00E947D1681E0B4
:102D4000C439D807B9F7C4E9D1E009E911E089919C
:102D50008F3F11F00E947D160C171D07C1F7DF9100
:102D6000CF911F910F9108958F929F92BF92CF9212
:102D7000DF92EF92FF920F931F93CF93DF93D82EA2
:102D8000E92EF62E8A01C62FD0E0C957DE4F2881E2
:102D90002F3F09F453C0F894E22FE295EF70F0E072
:102DA00031A12F7081E090E001C0880F2A95EAF7E9
:102DB000932F982B91A392A18095892382A3789435
:102DC0000E94781684E9882E81E0982EED2DFE2D44
:102DD000BF01665F7F4FE12C6801C094D094D4019D
:102DE000BD904D0181919191AF0142505109BFEFCA
:102DF000BB1681F12B2D22952F7030E0D9019096D2
:102E00002C9130E0BB2DBF7002C035952795BA9547
:102E1000E2F720FD1FC0802B912BDA018D939C934C
:102E2000EE24E3946E177F07D1F688818F3F11F06F
:102E30000E947D166E2D8F2D0E947A16DF91CF9104
:102E40001F910F91FF90EF90DF90CF90BF909F90D8
:102E50008F9008958C219D21DA018D939C93E2CF70
:102E60000E9494168AE0EAE9F3E0DF01982F1D92B0
:102E70009A95E9F7E0E9F3E0DF011D928A95E9F719
:102E800085E00E949A170E9416160895CF92DF924D
:102E9000FF920F931F93CF93DF93CDB7DEB72A979F
:102EA0000FB6F894DEBF0FBECDBF8E010F5F1F4F70
:102EB0008AE0F80111928A95E9F7F12CCC24C394A9
:102EC000D12CA6016F2DC8010E94B416F394CC0C2E
:102ED000DD1CFDE0FF12F5CF4AE050E0B80180E9CB
:102EE00093E00E94AF2C21E0009709F420E0892BA9
:102EF00041F08AE0F801A0E9B3E001900D928A95D3
:102F0000E1F745E06AE973E080E993E00E949B17EE
:102F1000182F0E941A16812F2A960FB6F894DEBF3A
:102F20000FBECDBFDF91CF911F910F91FF90DF902A
:102F3000CF9008950895B0E0A0E0E1EAF7E10C94A5
:102F40006E2C6C017B01042FC22F222379F081E0CB
:102F5000809361030E9477249093600380935F03C2
:102F600080E0CDB7DEB7E8E00C948A2CD091610305
:102F7000DD23B1F380915F03909160030E948F2461
:102F8000059770F310E0000F111FA801B601C701EB
:102F90000E94AF2C892B31F0A801B601C7010E9415
:102FA000BC2CCD2F109261038C2FDBCF0E947E139F
:102FB00008950E9410240E94F0260E943D130E9452
:102FC0000A270E9471130E9417270E941C270E9443
:102FD000D6170E9442270E9428250E945013F5CF41
:102FE0009093C5028093C4020895FB01258122239A
:102FF00041F097FF06C09F77BC0190E080E00E94FF
:103000005D1981E008950F931F93CF93DF93EC0137
:103010008B01FB018581882389F00E944A1182720D
:10302000FE01E053FC47E830F10540F4EB5DF24D62
:103030000C945E2C882369F00E948F18B801CE0191
:103040000E94F517DF91CF911F910F91089588236A
:1030500099F30E948E18F2CF80E00E946E18EECF96
:1030600081E0FBCF82E0F9CF83E0F7CF84E0F5CFBA
:1030700085E0F3CF9091A503923071F48A3050F43B
:1030800090E009966AE070E00E944A2C875A0E94FC
:10309000640A08958650FBCF0E94CB2108950895BD
:1030A0000E944F1808958CE090E00E94C52C8093F8
:1030B000A5030E94501880915E0380FF0EC080918E
:1030C000A5031F928F9384EC93E09F938F930E94AC
:1030D000F9060F900F900F900F900895CF93C82F7F
:1030E0008093A503682F8CE090E00E94E32C8C2F46
:1030F0000E94501880915E0380FF0EC08091A5034E
:103100001F928F9385EA93E09F938F930E94F90615
:103110000F900F900F900F90CF91089508950895FC
:103120000E9490228093A4039091A503913029F4EA
:1031300081FF03C089E30E94640A0E944A118093C0
:10314000A6030E945D110E946D118091A50382303B
:1031500021F158F48823C1F08130D1F08FE39CE94C
:103160000197F1F700C000000895843051F18530D7
:10317000A9F78BE191E00E94A20785E290E00E940E
:10318000A20788E290E006C082EE0E945F09E6CFC7
:1031900088E193E00E94A207E1CF8091A40380FD23
:1031A00003C083E50E94640A82EE0E945F098FE3F8
:1031B0009CE90197F1F700C0000087E50E94640ACE
:1031C000CDCF86EE0E94640A88E1F8CF8091A503F6
:1031D000823011F148F4882381F0813091F08091A0
:1031E000A6030E945A1108958430F9F08530B9F78A
:1031F00088E290E00E94A207F2CF82EE0E94F209DC
:10320000EECF8CE20E94640A8091A40381FFE7CF95
:1032100089E30E94640AE3CF82EE0E94F209809162
:10322000A40380FDDCCF83E5F4CF88E2F2CF8F9258
:103230009F92AF92BF92EF92FF920F931F93CF9303
:10324000DF934B015C01D091A5038CE1E82EF12CBA
:1032500007E010E021E0D501C4010E2C04C0B695B2
:10326000A795979587950A94D2F7C82FCF702223F8
:1032700039F0D43051F4CA3040F080E00E943A185E
:103280008C2F0E943A1820E005C0C111F9CF0430FC
:103290001105B4F30150110984E0E81AF1080F3F59
:1032A0001007C9F6DF91CF911F910F91FF90EF901A
:1032B000BF90AF909F908F900895CF92DF92EF9242
:1032C000FF926B017C01C114D10481E1E806F10495
:1032D000A0F5C114D10481E0E806F10420F080914A
:1032E000A503823051F10E949018C114D10481E0ED
:1032F000E806F10438F18091A503811123C081E033
:10330000E81AF108C701B6012AE0969587957795E6
:1033100067952A95D1F778528F4F9F4F0E941719C2
:1033200083E0D822EE24FF24C701B60174528F4FE8
:103330009F4F0E9417190E94E618FF90EF90DF90B0
:10334000CF900895C701B601F4CF809102011F927A
:103350008F93809103011F928F93809106011F929A
:103360008F93809107011F928F93809108011F9284
:103370008F93809109011F928F9384EE93E09F9326
:103380008F930E94F9068DB79EB70E960FB6F894EC
:103390009EBF0FBE8DBF0895883248F58E3108F06C
:1033A0007FC08B3069F130F4873009F4E0C083E4EA
:1033B00095E0F1C0833109F468C08431C1F785E636
:1033C00095E09F938F930E94F9060F900F90809144
:1033D0006603882309F411C11092660310926503F5
:1033E00010926403109263031092620325C08F341D
:1033F00009F4D6C008F03FC0893209F38833B9F622
:1034000088E695E09F938F930E94F9060E94A51984
:103410001F9281E08F931F9288E08F9381E694E062
:103420009F938F930E94F9068DB79EB708960FB6AB
:10343000F8949EBF0FBE8DBF20916603222309F42E
:10344000D3C08091620390916303009711F489E9DE
:1034500091E09F938F931F922F9381E395E09F9329
:103460008F930E94F9060F900F900F900F900F907E
:103470000F9081E00895813509F4A6C008F4A6C034
:10348000823509F094CF81E08CC087E595E09F9369
:103490008F930E94F9060E94A5190F900F90CCCF30
:1034A0008D5180936603833009F446C078F48130EF
:1034B000E1F08230C1F11092660384E595E09F93BC
:1034C0008F930E94F9060F900F901BC0853009F46E
:1034D00045C0D8F1863079F782E091E0909365039A
:1034E0008093640381EE91E008C089E091E09093BD
:1034F0006503809364038DE991E090936303809367
:10350000620380916603882309F496CF1F928F93FC
:1035100080E595E09F938F930E94F9060F900F909E
:103520000F900F9089CF88E091E09093650380938E
:10353000640386EA91E0E1CF87E091E09093650330
:103540008093640382EB91E0D8CF86E091E0909382
:103550006503809364038FEB91E0CFCF83E091E02C
:1035600090936503809364038EEC91E0C6CF81E075
:103570008093090184E1809308018AE08093070128
:103580008EE18093060188E08093030188E28093B6
:10359000020186E495E09F938F930E94F9067DCF08
:1035A0008AE0E0916403F09165033097D1F02081C7
:1035B000082E000C990B820F911D8F3F910541F051
:1035C0003CF08FEF808307C08FEFEBCF86EFE9CF22
:1035D00097FFF8CF108280811F928F938DE395E043
:1035E00099CF8AE395E0D7CF8DE295E09F938F93B3
:1035F0000E94F9060F900F903CCF80E00895CF9382
:10360000C82F1F928F938EE795E09F938F930E9410
:10361000F90681E090E002C0880F991FCA95E2F791
:103620000E941B0D0E94CE0C0F900F900F900F90D8
:10363000CF910895EF92FF920F931F93CF93DF9353
:103640008B3109F426C108F0B4C08B3009F4D2C024
:1036500008F086C0863009F4E6C068F4853009F4C5
:10366000B6C083E299E09F938F930E94F9060F9072
:103670000F9080E0F0C0873009F4F2C0883089F7FD
:103680000E9469121F928F9386E099E09F938F9317
:103690000E94F9060E94641283FB992790F91F92F9
:1036A0009F9382FB992790F91F929F9381FB992703
:1036B00090F91F929F93982F91701F929F931F9242
:1036C0008F938DEB98E09F938F930E94F9060E9451
:1036D0006E1293FB222720F91F922F9387FB22273C
:1036E00020F91F922F9386FB222720F91F922F93F8
:1036F00085FB222720F91F922F9384FB222720F994
:103700001F922F9383FB222720F91F922F9382FB76
:10371000222720F91F922F9391FB222720F91F9235
:103720002F93292F21701F922F9381FB222720F99D
:103730001F922F93282F21701F922F939F938F9367
:103740008EEB97E09F938F930E94F9068DB79EB7FB
:103750008A960FB6F8949EBF0FBE8DBF81E07BC0E6
:10376000803109F4B0C080F48E3009F07ACF9091A6
:103770005E03892F8B7F92FF846080935E0382FFBC
:103780009FC08EE499E091C0863109F4ACC08931C4
:1037900009F067CF86EF91E09F938F938EEE95E0CF
:1037A0009F938F930E94F9060F900F900F900F90A8
:1037B000D5CF8A3269F1A0F4873231F128F48E3105
:1037C00008F44FCF8D5121C0893209F04ACF81E9E9
:1037D00099E09F938F930E94F9060E94250820C0CC
:1037E000833478F48A3308F0A3C0853369F08833D2
:1037F00009F037CF88E196E09F938F930E94F906F6
:103800000FC0833409F02DCF80E00E94FF1AA6CFAD
:1038100081EB99E09F938F930E94F9060E94F41226
:103820000F900F909BCF80915E03807F80935E030B
:1038300081EF95E09F938F930E94F9068DEA99E0BE
:103840009F938F930E94F90681E0809367030F9006
:103850000F900F900F90CDB7DEB7E6E00C948C2C54
:1038600090915E03892F8E7F90FF816080935E032D
:1038700080FF03C085E899E0BFCF88E799E09F9378
:103880008F930E94F90680915E03817F80935E038F
:10389000C7CF90915E03892F8D7F91FF82608093C7
:1038A0005E0381FF0AC08BE699E09F938F930E948D
:1038B000F90680915E038160E9CF8DE599E09CCFA8
:1038C0008EE399E099CF90915E03892F877F93FFD4
:1038D000886080935E0383FF03C082E399E0E5CFB5
:1038E00085E299E089CF0E948324162F072FF82EB6
:1038F000E92ED0918D03C09114010E948322EF9292
:10390000FF920F931F931F92DF931F92CF931F92EB
:103910008F9383E895E09F938F930E94F9068DB76C
:103920009EB70C960FB6F8949EBF0FBE8DBF16CFF4
:1039300089536BCF80E008950E949A1C0895CF931D
:10394000C82F809167038130C1F0882339F082301D
:1039500009F450C01092670380E00DC00E944A1124
:103960008232D1F78C2F0E949A1C81111FC08C2F9C
:103970000E941A1B8170CF9108950E944A118232D1
:1039800089F38C2F0E949C1C811127C0C43139F10E
:1039900080F4CB3091F0C03131F188E795E09F930E
:1039A0008F930E94F9060F900F901BC081E090E06A
:1039B000E1CFC932A1F0C83381F781EF95E09F9341
:1039C0008F930E94F9068AE795E09F938F930E9458
:1039D000F9060F900F900F900F9081E0CBCF1092CF
:1039E000670380E0C7CF82E08093670388E30E948B
:1039F000CC19F3CF8C2F0E94CC1981E0BCCFCF9390
:103A0000DF93EB0186319C4711F50E944A119D819D
:103A1000992399F08A7A91E009F490E090936803F1
:103A2000811109C089E20E9489230E94DC1180E093
:103A3000DF91CF91089585E3F6CF809168038111DE
:103A400004C089E20E949123F0CF85E3FBCF81E09F
:103A5000EFCFCF93DF93EC01FB018581882309F43D
:103A6000D2C09E0130572332310508F0B2C00E9407
:103A70006E1290938F0380938E03FE01E150F04706
:103A8000E232F10520F4E35DF24D0C945E2C80915E
:103A90008E03816080938E0393C080918F03886032
:103AA00080938F038DC080918E038260F3CF8091CD
:103AB0008E038460EFCF80918E038860EBCF80917E
:103AC0008F038160EDCF80918F038260E9CF809179
:103AD0008E038061DFCF80918E038062DBCF809187
:103AE0008E038064D7CF0E94CE0C80918E038068B5
:103AF000D1CF80918E038C60CDCF80918F03836076
:103B0000CFCF80918E038E7FC5CF80918F03877F2B
:103B1000C7CF80918E038D7FBDCF80918E038B7F29
:103B2000B9CF80918E03877FB5CF80918F038E7F31
:103B3000B7CF80918F038D7FB3CF80918E038F7E1F
:103B4000A9CF80918E038F7DA5CF80918E038F7B2F
:103B5000A1CF0E94CE0C80918E038F779BCF809156
:103B60008E03837F97CF80918F038C7F99CF809135
:103B70008E0382FB992790F921E0922790FB82F92E
:103B800090FB83F987CF80918F03982F9095917048
:103B90008E7F892B90FB81F983CF90918E03892FA3
:103BA0008F7B96FF806476CF0E94CE0C90918E031F
:103BB000892F97FB87F980586DCF81E00E94F7121B
:103BC00080918E0390918F030E9473120E94CE0CFD
:103BD00080E0DF91CF91089580E0F0CF90918E0347
:103BE000892F8F7E94FF806155CF90918E03892F0E
:103BF0008E7F90FF81604ECF90918F03892F877FBA
:103C000093FF88604DCF81E0E4CF282F35EB23036D
:103C1000C001112497FF04C080589109892F08958D
:103C200080589F4FFBCF80916F0380FF0DC0609144
:103C3000070170E0660F771F6038710570F5611538
:103C4000710569F1862F089581FF07C06091070112
:103C500084E0689FB0011124EFCF6091070182FDDD
:103C60000AC080916E038823A9F02091060160911B
:103C70000701821710F088E0ECCF869FC001112465
:103C800033E0880F991F3A95E1F7622F70E00E94A8
:103C90004A2CD2CF68E070E0D5CF8FE7089581E05D
:103CA000089580916F0380FF0CC06091030170E064
:103CB00075956795759567956115710549F1862F1D
:103CC000089581FF06C06091030170E075956795C6
:103CD000F3CF6091030182FD0BC090916D03992396
:103CE000A1F06091020180910301961738F0682FCE
:103CF00070E06038710500F38FE70895899FC00177
:103D0000112470E00E944A2CF4CF61E070E0D7CF1C
:103D100081E008958D3C31F40E94131E81958093BB
:103D2000730308958E3C19F40E94131EF8CF8F3C44
:103D300031F40E94131E8195809372030895803D93
:103D400019F40E94131EF8CF893D29F40E94511ED8
:103D50008093740308958A3D21F40E94511E819539
:103D6000F7CF8B3D31F40E94511E819580937503EE
:103D700008958C3D19F40E94511EF8CF9FE2980FD0
:103D8000983070F4815D990B21E030E001C0220F82
:103D90008A95EAF780917103822B809371030895CD
:103DA0008D3D31F480916F03816080936F0308959E
:103DB0008E3D21F480916F038260F7CF8F3DB9F77C
:103DC00080916F038460F1CF409172038D3C59F470
:103DD0008091730387FF0DC01092730341110BC0D4
:103DE00010926E0308C08E3C81F480917303181604
:103DF0009CF3442381F08091740390917503892B87
:103E000009F05AC010926D0308958F3C49F447FFA2
:103E1000F0CF10927203809173038111ECCFE0CF49
:103E2000803D19F41416ACF3E4CF90917403893DEE
:103E300029F41916F4F610927403DBCF8A3D19F4B5
:103E400097FFD7CFF8CF909175038B3D29F497FF5B
:103E5000D0CF10927503CDCF8C3D19F41916CCF349
:103E6000C8CF9FE2980F983090F4815D990B21E0C4
:103E700030E0B90102C0660F771F8A95E2F7CB01E7
:103E8000809590917103892380937103B2CF8D3D0A
:103E900031F480916F038E7F80936F03AACF8E3DA4
:103EA00021F480916F038D7FF7CF8F3D09F0A1CF73
:103EB00080916F038B7FF0CF089580915E0383FF25
:103EC00096C089EE99E09F938F930E94F9068091A6
:103ED00071031F928F9384EE99E09F938F930E94BA
:103EE000F90682EE99E09F938F930E94F9068091E4
:103EF0007203282F082E000C330B3F938F938FED06
:103F000099E09F938F930E94F9068DED99E09F931E
:103F10008F930E94F90680917303282F082E000CBE
:103F2000330B3F938F938AED99E09F938F930E9479
:103F3000F90688ED99E09F938F930E94F90680918E
:103F40007403282F082E000C330B3F938F9385EDBD
:103F500099E09F938F930E94F90683ED99E09F93D8
:103F60008F930E94F90680917503282F082E000C6C
:103F7000330B3F938F9380ED99E09F938F930E9433
:103F8000F9068DEC99E09F938F930E94F9068DB707
:103F90009EB780960FB6F8949EBF0FBE8DBF8091DE
:103FA0006E031F928F938AEC99E09F938F930E94E8
:103FB000F90688EC99E09F938F930E94F90680910F
:103FC0006F031F928F9385EC99E09F938F930E94CC
:103FD000F90682EC99E09F938F930E94F9068DB7C2
:103FE0009EB70C960FB6F8949EBF0FBE8DBF0E9471
:103FF00077249C019091720380917303982B21F098
:1040000030936C0320936B0390917403809175033C
:10401000982B21F030936A032093690380E793E0A3
:104020000E94E122089586E0E0E7F3E0DF011D92BF
:104030008A95E9F710926E0310926D0310926F0348
:104040000895FC01828181110EC0838181110BC012
:104050008481811108C091E08581811101C090E0C7
:10406000892F8170089581E0FCCFA6E0B0E0EBE3FA
:10407000F0E20C94732C86E0E0E7F3E0DE011196A9
:1040800001900D928A95E1F71092720310927303DA
:1040900010927403109275038B819C81892B89F097
:1040A00080916B0390916C030E948F24AC019091DE
:1040B0006E039923C9F1809108018417150608F44D
:1040C00040C08D819E81892B91F0809169039091F0
:1040D0006A030E948F24AC0190916D03992309F427
:1040E0006AC0809104018417150608F472C0BE01ED
:1040F0006F5F7F4F80E793E00E94A423811105C08A
:1041000080E793E00E94212081110E945D1F86E0DC
:10411000FE013196A0E7B3E001900D928A95E1F798
:104120002696E3E00C948F2C209109018AE0289FC9
:10413000900111242417350720F69F5F90936E039A
:1041400002C09F3FD1F71B81112359F00E94131E1B
:104150009FEF11160CF491E0899F802D112480931C
:1041600072031C81112359F00E94131E9FEF111638
:104170000CF491E0899F802D11248093730380912A
:104180007203882309F49DCF10917303112309F45E
:1041900098CF0E94051E882351F080937203812FCF
:1041A0000E94051E882329F0809373038ACF81E043
:1041B000F4CF81E0F9CF209105018AE0289F90019A
:1041C00011242417350708F092CF9F5F90936D0359
:1041D00002C09F3FD1F71D81112359F00E94511E4B
:1041E0009FEF11160CF491E0899F802D112480938C
:1041F00074031E81112359F00E94511E9FEF111666
:104200000CF491E0899F802D112480937503809197
:104210007403882309F46BCF10917503112309F4FB
:1042200066CF0E94051E882351F080937403812F6E
:104230000E94051E882329F08093750358CF81E0E2
:10424000F4CF81E0F9CFB0E0A0E0E9E2F1E20C9434
:104250006D2CE82FF0E0E45FF54FB490282F269501
:104260002695269530E0F901E455F54F04918770C5
:1042700010E0082E02C0159507950A94E2F7017028
:104280001127F901E456F54FE490F12C082E02C0F5
:10429000F594E7940A94E2F791E0E922FF24F9010A
:1042A000E457F54FC491D0E002C0D595C7958A95E3
:1042B000E2F7C170DD27C62ED12C0115110549F595
:1042C000E114F10431F086EE0E945F09C601009707
:1042D00071F5B6018B2D0E944C0AC601009779F545
:1042E000E114F104A1F50115110531F081EE0E94F0
:1042F000F209C6010097C9F5CD2B31F08CE20E947E
:10430000640AC114D104C9F5CDB7DEB7E9E00C9455
:10431000892C81EE0E945F09C601009789F2EFE9BE
:10432000FFE03197F1F700C000000197F6CFEFE909
:10433000FFE03197F1F700C000000197C8CFEFE927
:10434000FFE03197F1F700C000000197C7CF86EE7C
:104350000E94F209C601009731F2EFE9FFE03197C0
:10436000F1F700C000000197F6CFEFE9FFE03197C9
:10437000F1F700C000000197BDCF8FE99FE00197E2
:10438000F1F700C0000091E0C91AD108BACF60E08F
:104390000E9423210895982F9F709A50963020F004
:1043A000805D0E94C7210895895AFBCF0F931F9308
:1043B000CF93DF93C42FD22FFC0185818823C9F0CE
:1043C000409378030E947724909377038093760339
:1043D00080E28C0F883040F4C77081E001C0880F04
:1043E000CA95EAF70E946D0ADF91CF911F910F9154
:1043F000089510917803141332C080917603909140
:1044000077030E948F24883C910548F5C0E2CD0FC8
:104410001D17B9F080E2810F883040F4177081E0F9
:1044200001C0880F1A95EAF70E94740AC83048F450
:1044300081E09D2F977001C0880F9A95EAF70E943E
:104440006D0A802F0E94640AC83070F6D77081E030
:1044500001C0880FDA95EAF70E94740AC5CF80E29E
:104460008C0F883008F6C77081E001C0880FCA95AC
:10447000EAF7F2CF0F93DB0188519C478730910513
:10448000A0F5FC01E15BF24D0C945E2C06E221EEFE
:1044900041EE6AE17CE7CD010E94D62180E00F91D8
:1044A000089507E225EE45EE6BE17CE7F4CF06E2E6
:1044B00021EE40EE68E17CE7EECF07E225EE44EE28
:1044C00069E17CE7E8CF06E221EE42EE6CE17CE7B1
:1044D000E2CF07E225EE46EE6DE17CE7DCCF08E2B5
:1044E00021E045EE6EE17CE7D6CF15968C918823CE
:1044F00019F010927803D3CF81E0D1CF90937E034F
:1045000080937D030895E0917D03F0917E033097C1
:1045100029F00190F081E02D0995089580E008953B
:104520000E9483220895EF92FF920F931F93CF93DF
:10453000DF93EC01E0917D03F0917E033097E1F190
:104540000280F381E02D099580915E0382FF34C0E3
:1045500080FF0DC088811F928F9384EC9AE09F9317
:104560008F930E94F9060F900F900F900F907E018D
:1045700086E0E80EF11C0EEB1AE080915E0380FFEE
:104580000BC08A811F928F931F930F930E94F9068D
:104590000F900F900F900F902196CE15DF0569F7C1
:1045A00080915E0380FF08C08CEB9AE09F938F930D
:1045B0000E94F9060F900F90CDB7DEB7E6E00C949D
:1045C0008C2CE0917D03F0917E03309739F022E04E
:1045D000DC012C930680F781E02D09950895A3E076
:1045E000B0E0E5EFF2E20C94742C20917B03309163
:1045F0007C0328173907A1F090937C0380937B03F9
:10460000E0917D03F0917E03309751F023E0298300
:104610009B838A830084F185E02DCE010196099564
:104620002396E2E00C94902CA3E0B0E0EAE1F3E200
:104630000C94742C2091790330917A032817390750
:10464000A1F090937A0380937903E0917D03F09138
:104650007E03309751F024E029839B838A83008472
:10466000F185E02DCE01019609952396E2E00C94A8
:10467000902C40910001509101019A012E5F3F4F13
:10468000485F5F4F80E02417350709F40895F9016A
:1046900091919F019923B9F38F5FF5CF882371F032
:1046A0002091000130910101F9013296285F3F4FBE
:1046B0009191981729F0E217F307D1F780E0089558
:1046C00081E008959C01FC0132969FEF80E04191CA
:1046D000461751F09F3F19F4411101C0982F8F5F89
:1046E0008630A9F79F3F09F40895290F311D97FDE2
:1046F0003A95F90162830895FC013296089621915A
:10470000261303C0DF0111971C92E817F907B9F7C8
:104710000895682F80910001909101010E94622309
:104720000895682F80910001909101010E947C23DF
:104730000895E0910001F0910101329686E0DF01D9
:104740001D928A95E9F70895DC01FB0111969C9171
:1047500011978181981322C012968C911297882309
:1047600019F0928189131AC013968C91139788239C
:1047700019F09381891312C015968C91159788238F
:1047800019F0958189130AC014969C91992321F000
:1047900081E02481291303C080E001C081E08170A1
:1047A000089508950E94D1230895811106C081E0E3
:1047B00080937F030E94D223089582E0F9CF83E0A3
:1047C00080937F030E94D22308950E94D5230895E9
:1047D00081E080937F030E94D22308950E94E82302
:1047E0000895089508950E94F22308950895089564
:1047F0000E94F1230895CF930E94F6230E9446174A
:104800000E94F723C0E08C2F0E941D16892B31F4E3
:10481000CF5FC530C1F780E0CF91089581E0FCCF34
:1048200085B7806885BF85B7806885BF08951F926A
:104830001FB61F9211248F939F93AF93BF938091C4
:104840008003811113C08091A7039091A803A091C8
:10485000A903B091AA034196A11DB11D8093A7039E
:104860009093A803A093A903B093AA03BF91AF911B
:104870009F918F911F901FBE1F9018958091AF033D
:10488000843031F10E94A4081092800388E190E006
:1048900020E40FB6F894A895809360000FBE209393
:1048A000600083B7817F846083BF83B7816083BFEB
:1048B0007894889583B78E7F83BF0FB6F894A895B8
:1048C00080916000886180936000109260000FBE4C
:1048D00008950E94CE0C0E94A908089582E084BD2C
:1048E00093E095BD9AEF97BD80936E0008952FB722
:1048F000F8948091A7039091A803A091A903B09187
:10490000AA032FBF08952FB7F8946091A703709161
:10491000A8038091A9039091AA032FBF08959C0139
:104920004FB7F8948091A7039091A803A091A90391
:10493000B091AA034FBF821B930B089578941F92E6
:104940001FB61F9211248F939F93AF93BF938091B3
:10495000A7039091A803A091A903B091AA0301967F
:10496000A11DB11D8093A7039093A803A093A90351
:10497000B093AA03BF91AF919F918F911F901FBEDB
:104980001F90189587E797E7909301088093000898
:1049900088E19AE00FB6F894A895809360000FBE66
:1049A00090936000FFCF88E19AE00FB6F894A89545
:1049B000809360000FBE90936000FFCF80918C03C6
:1049C000089508959B01BA019091AF039430E9F4E2
:1049D0008F708093E9009FEF8091E800915085FDF2
:1049E00006C085ED8A95F1F700009111F5CF809111
:1049F000E80085FF0AC050E040E0C9010E94B827E6
:104A00008091E8008E778093E800089543E050E0BD
:104A1000BC0182E00E94E224089546E050E0BC011F
:104A200082E00E94E2240895CF93DF93EC0148E0F6
:104A300050E0BC0181E00E94E22488E0FE01A4E88D
:104A4000B3E001900D928A95E1F7DF91CF9108953F
:104A5000089583E09BE09F938F930E94F9068091D5
:104A6000AE030F900F90811109C00E9448290E9447
:104A7000A5298091E20084608093E20008958FEF81
:104A80009AE09F938F930E94F9061092AE030F90C5
:104A90000F9008958BEF9AE09F938F930E94F906F1
:104AA0000E94E8230F900F90089587EF9AE09F935C
:104AB0008F930E94F9066091AB0381E0611101C000
:104AC00080E00E94DF230F900F90089583EF9AE01B
:104AD0009F938F930E94F9069091AF0381E09430E9
:104AE00009F080E06091AB030E94E5230F900F90E6
:104AF0000895209182032F5F822F62E30E943E2C53
:104B0000992319F0209382030895109282038091D3
:104B100083038823F1F08091AF038430C1F4909136
:104B2000E9009F702091EC00822F817020FD80E8C9
:104B3000892B93E09093E9009091EB0090FF04C0E3
:104B40009091EE0097FD08C08F708093E90010925D
:104B5000830308951092F1009091E80095FDFACF3B
:104B60009091E80090FFF0CF9091E8009E779093AD
:104B7000E800EACF42E061EC81E00E94C42842E212
:104B800061EC82E00E94C42842E261EC83E00E9472
:104B9000C4289091AF0381E0943009F080E06091E7
:104BA000AB030E94D52308958091B103833009F4AB
:104BB00061C030F48130D1F1823009F49EC0089593
:104BC0008A3009F48AC08B3009F46FC0893009F04B
:104BD00050C08091B003813209F04BC08091B40382
:104BE0009091B503029708F044C08091E800877F58
:104BF0008093E8008091E80082FF37C09091F30035
:104C00008091F200029731F48091F100813011F02F
:104C1000863021F48091F10080938C038091E8002C
:104C20008B778093E8000E94F82823C08091B0031E
:104C3000813AF9F48091E800877F8093E8008091C1
:104C4000B4039091B503892B61F468E084E893E0A4
:104C500070E00E9407288091E8008B778093E8003D
:104C6000089560E090E080E0F3CF8091AF03811180
:104C7000C1CF08958091B003813AD9F78091B403F0
:104C80009091B503892BA9F78091E800877F8093E5
:104C9000E8008091E80080FFFCCF809114018093B0
:104CA000F1008091E8008E77BCCF8091B003813213
:104CB00001F78091B4039091B503892BD1F68091CF
:104CC000E800877F8093E8000E94F8288091B20373
:104CD000809314010E94CE0C08958091B00381321C
:104CE00041F68091E800877F8093E8000E94F828D1
:104CF0008091B30380938D0308958091B003813A2E
:104D000009F0B7CF8091E800877F8093E800809119
:104D1000E80080FFFCCF80918D03C1CF9FB7F8944E
:104D2000109283039FBF9091AF03943009F048C065
:104D30002091E9002F703091EC00932F917030FD9D
:104D400090E8922B23E02093E9002091EB0020FFD4
:104D500034C02091EE0027FF30C020918103222330
:104D600021F02091E80025FF28C01092810326E061
:104D70003091E80035FF14C08093F1008091E80085
:104D800085FD27C08091E80080FFFCCF8091E8007E
:104D90008E778093E8009F709093E90080E00895FB
:104DA0003091AF03343049F43091EB0035FD05C04C
:104DB000215041F481E0809381039F709093E9003A
:104DC0008FEF0895EFE9FFE03197F1F700C00000A1
:104DD000CFCF8FB7F89421E0209383038FBFDBCF31
:104DE00084B7877F84BF0FB6F894A8958091600040
:104DF000886180936000109260000FBE80E890E0B0
:104E00000FB6F89480936100909361000FBE0E94EA
:104E1000EE2308950E9448290E94A529E2EEF0E0C1
:104E200080818460808378940E94232C08958AE096
:104E300091E00E947E2208958091AF03853091F425
:104E400080915E0380FF08C08DED9AE09F938F9361
:104E50000E94F9060F900F908091AF03853019F0F2
:104E60000E94692408950E943E240E94FB23882307
:104E700099F38091AD03882379F30E94A2270E94C1
:104E8000CE0CEACF08959A014091B6035091B70332
:104E90000E944B270895492F55274330510521F192
:104EA00068F44130510509F443C04230510509F41A
:104EB00044C090E080E050E040E026C0413251051F
:104EC00051F142325105A9F76330710590F7FB01AA
:104ED000EE0FFF1FE954FD4F408151816C547D4F0F
:104EE000FB01808190E010C099278130910581F00D
:104EF000009729F00297E9F6E7E0FBE002C0EBE259
:104F0000FBE0849190E0AF01F90151834083089563
:104F1000EBE1FBE0F6CF6330710558F6660F771FC3
:104F2000FB01E354FD4F4081518189E090E0ECCFDB
:104F300082E190E043E85BE0E7CF84E590E04FE278
:104F40005BE0E2CF80E189BD82E189BD09B400FE6A
:104F5000FDCF8091D8008F7D8093D8008091E000B4
:104F600082608093E0008091E00081FDFCCF089595
:104F7000AF92BF92CF92DF92FF920F931F93CF9386
:104F8000DF936C01EB018A010E941729F82E811131
:104F900023C00115110539F0F80180819181C81BEA
:104FA000D90BC80ED91EB12CA12C2097A9F0809145
:104FB000E80085FD22C08091E8008E778093E800AC
:104FC00001151105A1F0F80180819181A80EB91E8B
:104FD000B182A08285E0F82E8F2DDF91CF911F91B5
:104FE0000F91FF90DF90CF90BF90AF9008950E94F7
:104FF00017298823D1F2F82EEFCFF60181916F01A6
:105000008093F1002197FFEFAF1ABF0ACECFFC01CA
:105010008091B6039091B70386179707A0F06115AA
:10502000710529F49091E8009E779093E80090E054
:105030006115710551F4911108C08091E80082FF5B
:1050400034C080E00895BC01F2CF8091AF03882383
:10505000C1F18530C1F18091E80083FD30C08091BD
:10506000E80082FDEACF8091E80080FFE1CF8091E7
:10507000F3002091F200382F6115710519F02830E6
:10508000310558F091E02830310509F090E0209189
:10509000E8002E772093E800CBCF81918093F10038
:1050A000615071092F5F3F4FE7CF8091AF03882395
:1050B00041F0853041F08091E80083FFBECF81E070
:1050C000089582E0089583E00895FC018091B6037D
:1050D0009091B70386179707A0F06115710529F421
:1050E0008091E8008E778093E80090E0611571056B
:1050F00051F4911108C08091E80082FF35C080E032
:105100000895BC01F2CF8091AF038823C9F18530A7
:10511000C9F18091E80083FD31C08091E80082FDF3
:10512000EACF8091E80080FFE1CF8091F3002091E9
:10513000F200382F6115710519F02830310558F04B
:1051400091E02830310509F090E08091E8008E77F9
:105150008093E800CBCF84918093F1003196615029
:1051600071092F5F3F4FE6CF8091AF03882341F055
:10517000853041F08091E80083FFBDCF81E0089544
:1051800082E0089583E00895982F973028F08F707B
:105190008093E90081E008959093E900242F762F11
:1051A00050E0981731F07091EC002091ED00509193
:1051B000F00021FD02C09F5FE8CF3091EB003E7F01
:1051C0003093EB003091ED003D7F3093ED00309156
:1051D000EB0031603093EB007093EC002093ED0016
:1051E0005093F0002091EE0027FDE5CF80E0089578
:1051F0008091B00387FF13C08091E80082FF06C052
:105200008091E8008B778093E80004C08091AF0321
:105210008111F2CF08958091AF038823D9F3809153
:10522000E80080FFF8CF8091E8008E77ECCF2091E6
:10523000E4003091E50095E6A9012091EC00822F71
:10524000817020FF06C08091E80080FF06C080E0EA
:1052500008952091E80022FD1AC08091AF038823B1
:1052600089F0853089F08091EB0085FD0FC0209199
:10527000E4003091E50042175307F9F29150E1F64E
:1052800084E0089582E0089583E0089581E0089520
:105290000E94B7290E94BF29E0EEF0E08081816082
:1052A0008083E8EDF0E080818F77808319BCA7EDE3
:1052B000B0E08C918E7F8C9380818F7E8083109262
:1052C000AE0308950F931F93CF93DF930E94B729E6
:1052D0000E94BF29C8EDD0E088818F7788838881BC
:1052E0008068888388818F7D888319BC1092AF0382
:1052F0001092AB031092AD031092AC0300EE10E0DD
:10530000F80180818B7F808388818160888342E07F
:1053100060E080E00E94C428E1EEF0E080818E7FB2
:105320008083E2EEF0E0808181608083808188600C
:105330008083F80180818E7F80838881806188836B
:10534000DF91CF911F910F910895E8EDF0E08081FA
:105350008F7E8083E7EDF0E080818160808384E050
:1053600082BF81E08093AE030E9462290895E8ED38
:10537000F0E080818E7F80831092E2000895109289
:10538000DA001092E10008951F920F920FB60F926B
:1053900011242F933F934F935F936F937F938F933A
:1053A0009F93AF93BF93EF93FF938091E10082FFB0
:1053B0000BC08091E20082FF07C08091E1008B7FEB
:1053C0008093E1000E9479258091DA0080FF19C066
:1053D0008091D80080FF15C08091DA008E7F809385
:1053E000DA008091D90080FF96C080E189BD82E11A
:1053F00089BD09B400FEFDCF81E08093AF030E9418
:1054000029258091E10080FF19C08091E20080FF92
:1054100015C08091E2008E7F8093E2008091E200CF
:1054200080618093E2008091D80080628093D800F0
:1054300019BC85E08093AF030E9455258091E1005F
:1054400084FF2BC08091E20084FF27C080E189BDEA
:1054500082E189BD89B5982F917080FFFBCF809143
:10546000D8008F7D8093D8008091E1008F7E80935B
:10547000E1008091E2008F7E8093E2008091E20063
:1054800081608093E2008091AB03882309F449C0D6
:1054900084E08093AF030E9466258091E10083FF42
:1054A00029C08091E20083FF25C08091E100877FC1
:1054B0008093E10082E08093AF031092AB03809170
:1054C000E1008E7F8093E1008091E2008E7F8093E7
:1054D000E2008091E20080618093E20042E060E0BF
:1054E00080E00E94C4288091F00088608093F000E2
:1054F0000E944A25FF91EF91BF91AF919F918F91AB
:105500007F916F915F914F913F912F910F900FBEBF
:105510000F901F90189519BC1092AF030E943F2561
:1055200070CF8091E30087FD93E09093AF03B3CFFA
:105530001F920F920FB60F9211242F933F934F9308
:105540005F936F937F938F939F93AF93BF93CF930B
:10555000DF93EF93FF93D091E900DF708091EC002F
:10556000C82FC17080FDC0E81092E9008091F00062
:10557000877F8093F00078940E94DC2A1092E900E3
:105580008091F00088608093F000CD2BCF70C093A5
:10559000E900FF91EF91DF91CF91BF91AF919F9182
:1055A0008F917F916F915F914F913F912F910F90CC
:1055B0000FBE0F901F901895AAE2B0E0E2EEFAE25B
:1055C0000C94732C80EB93E02091F100FC0121936B
:1055D000CF01F3E0883B9F07B9F70E94D425809163
:1055E000E80083FF1EC18091B0039091B1039A300F
:1055F00008F017C1E92FF0E0EA5AF24D0C945E2C46
:10560000803899F0823809F00CC18091B4038F7012
:10561000873008F006C18093E9008091EB0085FB9C
:10562000882780F91092E90006C08091AC03909120
:10563000AD03911182609091E800977F9093E8000C
:105640008093F1001092F1008091E8008E77E5C020
:10565000882309F4D3C0823009F0E3C08091B203FB
:105660008111D6C08091B4038F702FEF280F2630A0
:1056700008F0D7C08093E9002091EB0020FFC8C05C
:10568000933031F48091EB0080628093EB00C0C0D6
:105690009091EB0090619093EB0021E030E001C02D
:1056A000220F8A95EAF72093EA001092EA0080918F
:1056B000EB008860EACF8111B4C01091B2031F776C
:1056C0008091E3008078812B8093E3008091E80053
:1056D000877F8093E8000E94F8288091E80080FF8F
:1056E000FCCF8091E30080688093E30082E0111199
:1056F00083E08093AF0395C08058823008F091C05A
:105700008091B2039091B3038C3D23E09207A1F501
:1057100083E08A838AE289834FB7F894DE01139687
:1057200020E03EE051E2E32FF0E050935700E49197
:1057300020FF03C0E295EF703F5FEF708E2F90E087
:10574000EA30C0F0C7968D939D932F5F243159F7AF
:105750004FBF8091E800877F8093E8006AE270E0A5
:10576000CE0101960E9407288091E8008B778093F4
:10577000E80057C0C096E7CF6091B4037091B503BD
:10578000AE014F5F5F4F0E944327BC01892B09F494
:1057900048C09091E800977F9093E80089819A81B2
:1057A0000E946528E1CF8038E1F58091E800877F8D
:1057B0008093E8008091AB038093F10045CF811185
:1057C00030C09091B203923060F58091E800877FFD
:1057D0008093E8009093AB030E94F8288091AB037C
:1057E000882311F084E005C08091E30087FDFACFA3
:1057F00081E08093AF030E94BA2513C08091B20369
:10580000813079F481E0933009F080E08093AD033A
:105810001092E9008091E800877F8093E8000E9461
:10582000F8288091E80083FF0AC08091E800877F14
:105830008093E8008091EB0080628093EB00AA9651
:10584000E3E00C948F2CCF938091AF038823A1F0D9
:10585000C091E900CF709091EC00892F817090FD8C
:1058600080E8C82B1092E9008091E80083FD0E9437
:10587000DC2ACF70C093E900CF910895991B79E09D
:1058800004C0991F961708F0961B881F7A95C9F7D0
:105890008095089597FB072E16F4009407D077FDA6
:1058A00009D00E949B2C07FC05D03EF49095819571
:1058B0009F4F0895709561957F4F0895EE0FFF1FDC
:1058C0000590F491E02D09942F923F924F925F92B0
:1058D0006F927F928F929F92AF92BF92CF92DF9200
:1058E000EF92FF920F931F93CF93DF93CDB7DEB765
:1058F000CA1BDB0B0FB6F894DEBF0FBECDBF0994F9
:105900002A88398848885F846E847D848C849B844F
:10591000AA84B984C884DF80EE80FD800C811B815D
:10592000AA81B981CE0FD11D0FB6F894DEBF0FBE8C
:10593000CDBFED010895AA1BBB1B51E107C0AA1FF3
:10594000BB1FA617B70710F0A61BB70B881F991F20
:105950005A95A9F780959095BC01CD010895FB015A
:10596000DC0104C08D910190801921F44150504018
:10597000C8F7881B990B0895FB01DC0102C0019058
:105980000D9241505040D8F70895F999FECF92BD3D
:1059900081BDF89A992780B50895A8E1B0E042E06A
:1059A00050E00C94092DDC01A40FB51F415050406C
:1059B00048F0CB01840F951F2E910E94E42C41509A
:1059C0005040D0F70895262FF999FECF92BD81BDA2
:1059D000F89A019700B4021639F01FBA20BD0FB62D
:1059E000F894FA9AF99A0FBE08950396272F0E9409
:1059F000E42C0E94E32C252F0E94E42C242F0C94ED
:105A0000E42C0196272F0E94E42C0C94E32CDC015B
:105A1000CB01FC01F999FECF06C0F2BDE1BDF89AB9
:105A2000319600B40D9241505040B8F70895F89463
:105A3000FFCFBC0ABC0A0C0B0C0B710B8D0BEB0AD5
:105A4000EB0A920B030C120C120C1A1827182C18C4
:105A500030183218341836183818811DF51D891D74
:105A6000531D571D8D1D5B1D911D9D1D671DEE1D39
:105A70006B1DA11D6F1DA51DCD1D731DA91DD41D61
:105A8000791DAF1DB71D5F1D951D631D991D7D1DE2
:105A9000B31DC31DDD1DEC1D4D1D851DFC1D5722B5
:105AA0005D2246225122632269226F22002B282B7D
:105AB000112C282B112C5B2B7C2B112CD32BDF2BA7
:105AC0004003280850011E0A1401DE241425E12495
:105AD0000D25062501E200E900EA00B500B600B791
